:020000040000fa
:080000000002040000000000f2
:020000040000fa
:04000800b60300003b
:020000040000fa
:04000c00b603000037
:020000040000fa
:04001000b603000033
:020000040000fa
:04001400b60300002f
:020000040000fa
:04001800b60300002b
:020000040000fa
:04001c00b603000027
:020000040000fa
:04002000b603000023
:020000040000fa
:04002400b60300001f
:020000040000fa
:04002800b60300001b
:020000040000fa
:04002c00b603000017
:020000040000fa
:04003000b603000013
:020000040000fa
:04003400fa020000cc
:020000040000fa
:04003800b60300000b
:020000040000fa
:04003c00b603000007
:020000040000fa
:04004000b603000003
:020000040000fa
:04004400b6030000ff
:020000040000fa
:040048001a03000097
:020000040000fa
:04004c00b6030000f7
:020000040000fa
:04005000b6030000f3
:020000040000fa
:04005400b6030000ef
:020000040000fa
:04005800b6030000eb
:020000040000fa
:04005c008e0300000f
:020000040000fa
:04006000b6030000e3
:020000040000fa
:04006400b6030000df
:020000040000fa
:04006800b6030000db
:020000040000fa
:04006c00b6030000d7
:020000040000fa
:04007000b6030000d3
:020000040000fa
:04007400b6030000cf
:020000040000fa
:04007800b6030000cb
:020000040000fa
:04007c00b6030000c7
:020000040000fa
:04008000b6030000c3
:020000040000fa
:04008400b6030000bf
:020000040000fa
:04008800b6030000bb
:020000040000fa
:04008c00b6030000b7
:020000040000fa
:04009000b6030000b3
:020000040000fa
:040094006403000001
:020000040000fa
:04009800b6030000ab
:020000040000fa
:04009c00b6030000a7
:020000040000fa
:0400a000b6030000a3
:020000040000fa
:0400a400b60300009f
:020000040000fa
:0400a800b60300009b
:020000040000fa
:0400ac00b603000097
:020000040000fa
:0400b000b603000093
:020000040000fa
:0400b400b60300008f
:020000040000fa
:0400b800b60300008b
:020000040000fa
:0400bc00b603000087
:020000040000fa
:0400c000b603000083
:020000040000fa
:0400c400b60300007f
:020000040000fa
:0400c800b60300007b
:020000040000fa
:0400cc00b603000077
:020000040000fa
:0400d000b603000073
:020000040000fa
:0400d400b60300006f
:020000040000fa
:0400d800b60300006b
:020000040000fa
:0400dc00b603000067
:020000040000fa
:0400e000b603000063
:020000040000fa
:0400e400b60300005f
:020000040000fa
:0400e800b60300005b
:020000040000fa
:0400ec00b603000057
:020000040000fa
:0400f000b603000053
:020000040000fa
:0400f400b60300004f
:020000040000fa
:0400f800b60300004b
:020000040000fa
:0400fc00b603000047
:020000040000fa
:04010000b603000042
:020000040000fa
:04010400b60300003e
:020000040000fa
:04010800b60300003a
:020000040000fa
:04010c00b603000036
:020000040000fa
:04011000b603000032
:020000040000fa
:04011400b60300002e
:020000040000fa
:04011800b60300002a
:020000040000fa
:04011c00b603000026
:020000040000fa
:04012000b603000022
:020000040000fa
:04012400b60300001e
:020000040000fa
:04012800b60300001a
:020000040000fa
:04012c00b603000016
:020000040000fa
:04013000b603000012
:020000040000fa
:04013400b60300000e
:020000040000fa
:04013800b60300000a
:020000040000fa
:04013c00b603000006
:020000040000fa
:04014000b603000002
:020000040000fa
:04014400b6030000fe
:020000040000fa
:04014800b6030000fa
:020000040000fa
:04014c00b6030000f6
:020000040000fa
:04015000b6030000f2
:020000040000fa
:04015400b6030000ee
:020000040000fa
:04015800b6030000ea
:020000040000fa
:04015c00b6030000e6
:020000040000fa
:04016000b6030000e2
:020000040000fa
:04016400b6030000de
:020000040000fa
:04016800b6030000da
:020000040000fa
:04016c00b6030000d6
:020000040000fa
:04017000b6030000d2
:020000040000fa
:04017400b6030000ce
:020000040000fa
:04017800b6030000ca
:020000040000fa
:04017c00b6030000c6
:020000040000fa
:04018000b6030000c2
:020000040000fa
:04018400b6030000be
:020000040000fa
:04018800b6030000ba
:020000040000fa
:04018c00b6030000b6
:020000040000fa
:04019000b6030000b2
:020000040000fa
:04019400b6030000ae
:020000040000fa
:04019800b6030000aa
:020000040000fa
:04019c00b6030000a6
:020000040000fa
:0401a000b6030000a2
:020000040000fa
:0401a400b60300009e
:020000040000fa
:0401a800b60300009a
:020000040000fa
:0401ac00b603000096
:020000040000fa
:0401b000b603000092
:020000040000fa
:0401b400b60300008e
:020000040000fa
:0401b800b60300008a
:020000040000fa
:0401bc00b603000086
:020000040000fa
:0401c000b603000082
:020000040000fa
:0401c400b60300007e
:020000040000fa
:0401c800b60300007a
:020000040000fa
:0401cc00b603000076
:020000040000fa
:0401d000b603000072
:020000040000fa
:0401d400b60300006e
:020000040000fa
:0401d800b60300006a
:020000040000fa
:0401dc00b603000066
:020000040000fa
:0401e000b603000062
:020000040000fa
:0401e400b60300005e
:020000040000fa
:0401e800b60300005a
:020000040000fa
:0401ec00b603000056
:020000040000fa
:0401f000b603000052
:020000040000fa
:0401f400b60300004e
:020000040000fa
:0401f800b60300004a
:020000040000fa
:0401fc00b603000046
:020000040000fa
:04020000b603000041
:020000040000fa
:04020400b60300003d
:020000040000fa
:04020800b603000039
:020000040000fa
:04020c00b603000035
:020000040000fa
:04021000b603000031
:020000040000fa
:04021400b60300002d
:020000040000fa
:04021800b603000029
:020000040000fa
:04021c00b603000025
:020000040000fa
:04022000b603000021
:020000040000fa
:04022400b60300001d
:020000040000fa
:04022800b603000019
:020000040000fa
:04022c00b603000015
:020000040000fa
:04023000b603000011
:020000040000fa
:04023400b60300000d
:020000040000fa
:04023800b603000009
:020000040000fa
:04023c00b603000005
:020000040000fa
:04024000b603000001
:020000040000fa
:04024400b6030000fd
:020000040000fa
:04024800b6030000f9
:020000040000fa
:04024c00b6030000f5
:020000040000fa
:04025000b6030000f1
:020000040000fa
:04025400b6030000ed
:020000040000fa
:04025800b6030000e9
:020000040000fa
:04025c00b6030000e5
:020000040000fa
:04026000b6030000e1
:020000040000fa
:04026400b6030000dd
:020000040000fa
:10040000ef0421000eff2d000e0188000000000007
:10041000000020000000e000020032000001200087
:100420002002880014000700d20007000000e0004e
:1004300003003a00407e2100010020000200370046
:100440000000200001002000810f70000100320038
:100450000f000700000020000000e0000200320052
:100460000000020000000000820f020000000000f7
:100470000040da000000fe00200020000000e00044
:1004800002003200100020009001880000000600e9
:10049000a1028800800478000000eb001f003700f4
:1004a000e284440054a0b4009905ba00e2844400f8
:1004b00054a0b4009906ba00e284440054a0b400e9
:1004c0000006eb00476fde00fd07b200ae018800ba
:1004d000636ce10003003a000ad801000000eb0061
:1004e0000e003700606ce10008003a00004deb00a0
:1004f0000a05e800020039003420ec000af0a000f0
:100500008b05e900f9ff3e00040037006168e10057
:10051000010032000086eb000b00070019c7ba008b
:100520000e04e0001905ba0003003a000a00e000da
:10053000dbff3a0000000600fe07b200ae028800b2
:100540008a047800f5ff37000cd0a300e20f4d00bd
:100550001c003b0089027800354dba000a05e8000e
:10056000020039003420ec000af0a0008b05e900fd
:100570000f003200254dba000a05e80002003900dc
:100580003420ec000af0a0008b05e90008003200de
:100590000c00e0000600320015cdba000a05e800a4
:1005a000020039003420ec000af0a0008b05e900bd
:1005b0008984e80054a0b4000b00e000e2ff3a0098
:1005c000000006009902ba00055d78008b05e9007d
:1005d000f7ff3200c82ade00055d78008b05e900d0
:1005e000f3ff32000c00e000f1ff320019ddba0029
:1005f000eeff37003600f800809fbe00829fbe00ed
:10060000849fbe00869fbe000000fa000068a9001b
:1006100044080700350a07000080fa004f03be00b7
:100620004f02be004f01be004f00be003600f90071
:10063000004006003600f800809fbe00829fbe008a
:10064000849fbe00869fbe000000fa000108a9003a
:1006500014d0bf000004e0000b003a0012c0b30049
:1006600000002000011a2400ff0807000041eb00f1
:1006700000002000011a2400fb08070010c0b3008e
:1006800014f0b7000900370012c0b30000002000ca
:10069000011a2c00f40807000041eb0000002000c4
:1006a000011a2c00f00807001470ef000080fa0017
:1006b0004f03be004f02be004f01be004f00be0000
:1006c0003600f900004006003600f800809fbe00aa
:1006d000829fbe00849fbe00869fbe000000fa007d
:1006e0000368a90080808000918080006100400044
:1006f000e0804800808088009180880042040700e4
:100700000080fa004f03be004f02be004f01be0042
:100710004f00be003600f90000400600801f780040
:100720000000fa0001a8a9000018800020828800bb
:1007300010188000308288002018800040828800d5
:100740003018800050828800401880006082880045
:10075000501880007082880010c0b3001bf0b700f2
:100760000080fa004f007800004006000040da00e8
:100770000000fe000000050014002000aa0337005e
:10078000f4ff2f00a80337000001be003c00070063
:100790000470a70003f0a1006509b1001600320043
:1007a0000d0035006828e10006003500f0ff2f003d
:1007b000f1ff27000300e00013003b0001002800c8
:1007c0000000050000004000818048008502e9002b
:1007d000fcff3a0008003700f88f420002003c009e
:1007e0008000eb00000005008100d1000080d300f4
:1007f0008502e800fcff3a000300e00002003b0035
:1008000060001000e0801800000006000001be003b
:100810001b0007000470a70003f0a10003f8a30069
:1008200013003a006509b1001000320009003500dc
:100830006928e100020035000100280000000500e1
:1008400000004000818048008502e900fcff3a007a
:1008500000000600f88f4200050035008100d1003d
:100860000080d3008502e800fcff3a00000006008b
:100870008000eb00000005006011b8008503370020
:10088000c70ade00f107b200f50fb200080032001f
:10089000e1cf4200020032000170a00024000500f8
:1008a000810f7000010032000408050044000500bb
:1008b000810f700002003a00140005008502e90073
:1008c0000000400081c04800fcff3b000170a00018
:1008d0002400050007f82700078361000638e100bf
:1008e00004003a00f7072000878361008703710046
:1008f00001003a0003f0a200889fbe008a9fbe005c
:100900008c9fbe00470ade000480a100c71ade00eb
:100910000580a10007002800078560008785610029
:10092000f70f20000720e1009e0032000728e100b9
:100930009c003200010678000400e000b4003200a0
:10094000f7072000878060000170a0000500e0002c
:10095000c0003200f7072000878161000370a0000b
:10096000050652000f003a000b50e1000b00320068
:100970000308e10002003a000200e1007e003200bc
:100980000204500083845800040031000001fd007f
:100990008101fd008402fd008a05fd006044b8006d
:1009a000210037000520e10005003d000001fd00a9
:1009b0008101fd008402fd008a05fd00050652004c
:1009c0007a60e100050035000170a1004722dd00da
:1009d000848070008a807000630037006044b80033
:1009e000ef02660007ff2f00070666000500e00023
:1009f00006003400f08312008714dd000511de00cc
:100a0000071bdd00060171008519de007060e10042
:100a1000050035000904780082047800030178009d
:100a20008001eb00700656000b50e10003003a0015
:100a30000200400083804800040037006004140076
:100a4000e0841c0002005800838058000188a30045
:100a5000060032008100d1000080d3008984d300d9
:100a60000884d3000402e800270037000178a300bf
:100a700025003a000100e000030032008186cf002b
:100a8000698656000a0037008c0020000000e00054
:100a900004003a0009007800880478000004eb00a4
:100aa000700252008086cf000d0646000c06e90059
:100ab0007060e100060035008000780009007800d1
:100ac000880478000004eb007006560070025200a3
:100ad0000c00e0000c0034008c08dd00f003160070
:100ae0000703de00868070000c00dd00074bde008f
:100af000060070008c4cdd000743de008684740025
:100b00000c44dd000c0252006120e10020003500a1
:100b1000610160000700280087816400f7ff27005b
:100b200087836400070374000300e00006003200be
:100b300082037300040032000000e800e0804800f7
:100b40000188a3000e003a00f70f20000720e10003
:100b50004a003d000170a1004722dd0081007200c3
:100b60008a8070000000be004f06be004f05be0028
:100b70004f04be00000006006000b800faff370016
:100b80008100d1000080d3000402e800eeff3700ae
:100b90000401780089017400a10107008a807000b7
:100ba000f1ff3700f7010700070278000001fd00a0
:100bb0008101fd00f30107008702780085037200c0
:100bc0000778a300040032000001fd008101fd0050
:100bd00006020700e4ff3700850362000768a300f0
:100be000080032000b50e10003003200f0ff2f003c
:100bf000f1ff2700dcff37000001fd008101fd004f
:100c0000d9ff37000468a300d7ff3200faff37008e
:100c1000f8ff2700888360000b003a000000e00026
:100c200009003a00830364008283730002003200eb
:100c30000200be00ccff37000b50e100ceff3a00af
:100c40000200be00c8ff37001400200081006400cd
:100c50003eff3700f8ff27008883610004003a0058
:100c60000200e00002003a008c007800beff37006e
:100c7000150020008301640039ff370001f82700c8
:100c80000000200081007500b7ff3700889fbe007c
:100c90008a9fbe008c9fbe001b0020000202be0087
:100ca0000586680006002800060666004709de0083
:100cb000f20fb200820032000243e80080003200ee
:100cc000c729de00f30fb2007d0032000343e800c5
:100cd0007b003200f107b2000170a000f507b200fe
:100ce0000570a000c708dd004903de0086807000a3
:100cf0004700dd00c72add004923de00868272003e
:100d00004722dd000305510004035000858358008d
:100d10000300310000004000818048000a05e9001e
:100d20008c1f78008a9fbe00040050008580580008
:100d30000402420085824a00000040008180480091
:100d40000005eb000004be006033b8000406be00de
:100d50000d48e10056003100110009004dccd800cb
:100d60000c01b8000d02b8008481410060824a0085
:100d70008283530003045c0084845c0060055d0092
:100d80000a00e00025003a00800578000d40e100ef
:100d90004900310088007800070078001100090040
:100da0004d88d8000c01b8000d02b80084814100c4
:100db00060824a006003110083835b0004045c00ce
:100dc000e0845c000900e00021003a004f01be0011
:100dd0000300e0002b003200e3016000070673000f
:100de0008c81710001003200640070004200de005e
:100df0004e5edd000c007000c258de0001e0a00075
:100e000083010700cf017800818071004f06be008a
:100e10004f05be004f04be00000006008c83430057
:100e20000d044c00e0844c0060054d000000e9001a
:100e30000a00e000d4ff32008c8343000d044c0014
:100e4000e0844c0060054d000000e900ceff370053
:100e50000c0343008d834b0060044c00e0844c0085
:100e60000000e9000900e000d8ff32000c03430055
:100e70008d834b0060044c00e0844c000000e900ce
:100e8000d2ff37004200de004e5edd000c00700035
:100e9000c258de0001e0a000cf0178000300e000ae
:100ea000daff320060001000e0801800d7ff370042
:100eb000f0ff2f00aaff3700f0ff2f00b9ff370027
:100ec0000404be002f010700870678000004fd001f
:100ed0008104fd002b010700078366000678a3004c
:100ee000030032000960a7000800be002c00370094
:100ef0000d78a300020032000800be002800370071
:100f00000778a30026003a0001f0a10009f0a10033
:100f10000668a30003003200f1ff2700f0ff2f0056
:100f2000baff37000d68a300030032000800be00be
:100f30008c807000b5ff37000768a30007003a00f7
:100f40000648a30003003200f1ff2700f0ff2f0046
:100f5000aeff37000d48a300030032006000b80068
:100f60008c807000a9ff37000748a30004003200fe
:100f700001f82700000020008c807000a3ff3700dc
:100f8000760107000004fd008104fd0002057800e1
:100f9000720107000802be008a01780059ff37007d
:100fa0000160a00012022000e280880097ff370055
:100fb0000100e000120032000500e00010003200e5
:100fc000889fbe008a9fbe008c9fbe000006eb007b
:100fd00001f8a3000300320060001000e080180058
:100fe0000cf0a00005f8a30003003200600212001c
:100ff000e0821a000cf0a2008005eb0041ff3700f0
:101000006000b800020005000383680007002800a4
:1010100007036300470ade000480a100c71ade0050
:101020000580a100f70f20000720e10042003200f8
:101030000728e10040003200889fbe008a9fbe0062
:101040008c1f7800f107b200f307b2000400e00043
:10105000640032000170a0000500e000680032006a
:101060000370a00085054200eb07b1000204b80040
:101070000302b8008484440060854a00020ab80074
:10108000848444000a854a00030ab8000405450028
:10109000040033000804d0008984d2000a85d200fd
:1010a0008b05e9006158e1003d0035000210200089
:1010b000090161000308200089816100f707200011
:1010c0008783640008867300c84cde00c853dd00c7
:1010d000878474004855de000300e00006003200fb
:1010e00082037600040032008904e80060054d00a8
:1010f0000a88a3000c003a00f70f20000758e1000f
:1011000044003d000a70a100c75ddd000a8575003e
:101110008a007300090078004f0678004f05be0072
:101120004f04be00000006000a05d1008984d300e8
:101130008b05e800f0ff3700881f78000604780070
:1011400090000700070278000001fd008101fd000a
:101150008c00070087027800850372000778a300df
:10116000050032000001fd008101fd009f00070025
:101170004f04780000000600850372000748a300b2
:1011800003003200f0ff2f00f1ff2700f8ff3700c7
:101190000000200001f8270088807000f4ff37006d
:1011a000880178004848dd00808171004848de00f1
:1011b000c850dd0001007000c850de000604780051
:1011c0000b0178001600070088807000d2ff3700fe
:1011d0000500e00005003200170020003a0007007b
:1011e0009dff370081037000f9ff3a008600780008
:1011f0004f0678004f05be004f04be0000000500fa
:1012000083037100f9ff3200270020002e00070041
:1012100094ff370001f8270086807000f4ff370044
:101220000100e00026003200610111007810e100a9
:1012300023003c006022b8007010e100040035007b
:1012400080027800010078008000eb0070015100fe
:101250000200e0000900340070031100062add00de
:10126000822ade008603dd00878272000200de0033
:10127000860bdd00070070008208de0084817100ab
:10128000f4ff2700048262008481710004002800ba
:10129000848262006102600005f0a6000000060082
:1012a00004827100070032000000e800e08048007e
:1012b000000006000002be006000b800efff37002b
:1012c0006000b80000000600889fbe000004eb002c
:1012d0006138e10016003a000100e00008003a0021
:1012e000c800de004800dd00880020000100e000aa
:1012f00003003a00c800de004800dd006804440036
:101300008184cf00e9845400060034008908dd00a0
:10131000f08314008703de00878070000900dd0081
:1013200009044400610214004f04be0000000600de
:101330000300e00008003a00c811de004811dd009b
:10134000880020000300e00003003a00c811de001e
:101350004811dd00680444008384cf00e984540010
:10136000060034008919dd00f08314008713de00c5
:10137000878171000911dd0009044400e1021400b5
:10138000e9ff37002700200001f0a7001700200028
:10139000470bde00f60fb200040032000643e800ff
:1013a0000a0032004702b300000006000103780083
:1013b000f607b2000603700002003a000703b3000c
:1013c000000006008702b300000006000103780059
:1013d000f607b20006037000020032000770a0009a
:1013e000000006000760a000000006000478a300cb
:1013f000040032000578a300030032000168a30056
:1014000001003a000200be000160a00000000600da
:1014100081017000270032008002eb0001f8a30078
:101420000300320060001000e0801800150020006a
:10143000f40720000202420020003400f7032000dd
:1014400087036000060420000003630002082000f8
:10145000000161004700de00c909dd000080710065
:10146000c708de000600e0000800320087037100b4
:10147000060032001000b0000180b0000188a30017
:1014800002003200c108de000402e800f107b200e9
:10149000f30f20000320e10003003d004722dd00a0
:1014a000810072002900370001f827000000eb00de
:1014b000260037006000b800000006006802120035
:1014c0007f20e100020034006000b8001f003700f8
:1014d0006011b8007020e100040035008001780040
:1014e000010078008000eb00700252000400e00070
:1014f00009003400f00312000719dd008419de0032
:101500000703dd00868171000400de00070bdd00ab
:10151000060070008408de00f7ff27008383630065
:1015200087037100060028000303630007003200f0
:101530000700e00003003a006101600002817300cf
:10154000020032001000b0000180b0000500a600cb
:101550000000060001f0a000000006004f0ade00b7
:101560004709de00f107b200f20fb2000b003200b3
:10157000f207b1000170a000c708dd00c901de005c
:10158000838070004700dd000400a6000000060014
:1015900060001000e080180000000600810f70005d
:1015a00001003a00000006008182cf000500e00043
:1015b00010003e008082cf00ee8242007028e100e1
:1015c0000400390007003e00800078000000eb00b6
:1015d0000e003700708312008600de000500dd007b
:1015e0000a003700708352008600dd000000eb0027
:1015f00006003700e28252008508dd007083120089
:101600000603de00868070000500dd007507b0006f
:101610000501ea000400a6000000060060001000ba
:10162000e080180000000600889fbe008a9fbe0070
:10163000841f78006c0007004f0078001100330011
:10164000f0ff2f00838f6c0006003b00040565004f
:101650000a00a7000800370009f0a60010002000cb
:1016600008003700820f5400838f5c0003003900ac
:101670001000200001003e000000200009f0a7003b
:101680000000ea004f05be004f04be000000e0006d
:1016900000000600889fbe008a9fbe000082700086
:1016a0000402710004827100260032000004be00b2
:1016b0000200be006011b8006b09200095022000f6
:1016c0000182cf000a0039000541b1000082cf003d
:1016d000070039000541b1000982cf00040039003c
:1016e0000541b1000882cf00010039000541b10079
:1016f00005425200120032000a003b008281710054
:10170000610164008100d1000080d3008984d3008e
:101710000884d3008b05e8000442e800f7ff3a0094
:10172000070037000804440089844c00000048008a
:10173000818048008b05e9000442e900f9ff3a0086
:10174000030007004f05be004f04be000000060066
:1017500081002000618055000b003d000b0020003f
:1017600061fe2f000100e1001d0034008281710044
:10177000610164008904d1000884d3000000e800fe
:10178000faff3a007100200061006400030070005d
:10179000020060000900320061044400e0844c0053
:1017a0000988a500050032008b05e8006808e10003
:1017b00002003a008904d1000884d300f20f20000f
:1017c0000258e10005003d00c75ddd00f907b200e9
:1017d0008980750008007800000006000bf82700db
:1017e0008b007800000005000004be0024fc070008
:1017f0000003be000405be000200be0020fc07007e
:08180000844f75000000060092
:020000040000fa
:101808000000fa0000d0bf000080fb00cf80de009f
:101818003201200003002000820f5000838f5800ff
:1018280098003e0000060100130037001c00370036
:10183800250037002f003700300037003b00370005
:1018480058003700630037003a003700450037007a
:101858004600370051003700600037006b00370042
:101868006c003700770037008600370085003700a6
:1018780076003700810037001030ef001230ef009b
:101888000041eb006000b8007504070012c0b30007
:101898006000b8007204070010c0b30000f0b70081
:1018a8008280800093808000803e2000010020001c
:1018b800800f5100818f59007500360020c0b30099
:1018c80000f0b70073003700b0808000c18080004e
:1018d8000041eb0062040700b0808000c1808000f6
:1018e80012c0b3005e04070030c0b30000f0b700b8
:1018f800680037006900070066003700b080800084
:10190800c18080000041eb00550407001080800072
:101918002180800001f0a20012c0b300500407002b
:1019280050c0b30000f0b7005a0037005b00070052
:1019380058003700b0808000c18080000041eb0073
:1019480047040700108080002180800001f0a20079
:1019580012c0b3004204070090c0b30000f0b70003
:101968004c0037004d0007004a0037001080800007
:101978002180800001f0a2000041eb00380407003c
:10198800b0808000c180800012c0b300340407001a
:10199800b0c0b30000f0b7003e0037003f000700ba
:1019a8003c003700108080002180800001f0a200f8
:1019b8000041eb002a040700b0808000c18080004d
:1019c80012c0b3002604070070c0b30000f0b700cf
:1019d80030003700310007002e003700b08080004b
:1019e800c18080000041eb001d040700b08080002a
:1019f800c180800001f0a20012c0b30018040700e3
:101a0800d0c0b30000f0b700220037002300070061
:101a180020003700b0808000c180800001f0a20063
:101a28000041eb000e040700b0808000c1808000f8
:101a380012c0b3000a040700f0c0b30000f0b700fa
:101a4800140037001500070012003700b08080002e
:101a5800c180800001f0a2000041eb0000040700f3
:101a6800b0808000c180800001f0a20012c0b300e5
:101a7800fb03070030c1b30000f0b7000700070000
:101a8800040037000070ef0000000000010037007c
:101a9800000000000080fa00000006000200fa00c2
:101aa800881f780060c0b300004f78000040eb004a
:101ab80010479800808180009181800018c0b30091
:101ac80002002000c320240029fb07000000e000da
:101ad800010035000044eb000804e0000300320078
:101ae8001e4090000004a000010037001e40900036
:101af80010479800a0818000b181800018c0b30011
:101b080002002000c320240019fb07000000e000a9
:101b1800010035000044eb000804e0000300320037
:101b28001e4090000014a000010037001e409000e5
:101b380010479800c0818000d181800018c0b30090
:101b480002002000c320240009fb07000000e00079
:101b5800010035000044eb000804e00003003200f7
:101b68001e4090000024a000010037001e40900095
:101b780010479800e0818000f181800018c0b30010
:101b880002002000c3202400f9fa07000000e0004a
:101b9800010035000044eb000804e00003003200b7
:101ba8001e4090000034a000010037001e40900045
:101bb80010479800008280001182800018c0b3008e
:101bc80002002000c3202400e9fa07000000e0001a
:101bd800010035000044eb000804e0000300320077
:101be8001e4090000044a000010037001e409000f5
:101bf800104798001e4090000080fb00cf80de0058
:101c0800f201200003002000820f5000838f58004b
:101c180081003e00000601001f0037002100370048
:101c28002300370025003700270037002900370038
:101c38002b0037002d0037002f0037003100370008
:101c480033003700350037003700370039003700d8
:101c58003b0037003d0037003f00370041003700a8
:101c68004300370045003700470037004900370078
:101c78004b0037004d0037004f0037005100370048
:101c88005300370055003700570037005900370018
:101c98005b0037005d00370060c0b300004f78007c
:101ca8006000370010c0b300004f78005d003700b7
:101cb80020c0b300004f78005a00370070c0b3004e
:101cc800004f78005700370030c0b300004f78004d
:101cd8005400370070c0b300004f7800510037003f
:101ce80070c0b300004f78004e00370070c0b300da
:101cf800004f78004b00370040c0b300004f780019
:101d08004800370070c0b300004f78004500370026
:101d180070c0b300004f78004200370070c0b300b5
:101d2800004f78003f00370070c0b300004f7800c4
:101d38003c00370070c0b300004f7800390037000e
:101d480070c0b300004f78003600370070c0b30091
:101d5800004f78003300370050c0b300004f7800c0
:101d68003000370070c0b300004f78002d003700f6
:101d780070c0b300004f78002a00370070c0b3006d
:101d8800004f78002700370070c0b300004f78007c
:101d98002400370070c0b300004f780021003700de
:101da80070c0b300004f78001e00370070c0b30049
:101db800004f78001b00370050c0b300004f780078
:101dc8001800370070c0b300004f780015003700c6
:101dd80070c0b300004f78001200370070c0b30025
:101de800004f78000f00370070c0b300004f780034
:101df8000c00370070c0b300004f780009003700ae
:101e080070c0b300004f78000600370070c0b30000
:101e1800004f78000300370060c0b300004f78001f
:101e2800000000001e80fb00e40f50001c00320080
:101e3800e40f500007003c00e20f5000120032008f
:101e4800e20f500013003c00e10f50000b0032007d
:101e58001c003700e60f500005003200e60f500066
:101e680012003500e70f500013003200150037004c
:101e780020c0b30006f0b7001400370060c0b300fc
:101e880006f0b70011003700a0c0b30006f0b70095
:101e98000e003700c0c0b30006f0b7000b003700d3
:101ea80040c0b30006f0b7000800370080c0b30098
:101eb80006f0b7000500370020c1b30006f0b700f0
:101ec800020037000670ef000000000006d0bf00d7
:101ed8008080fb0000d0bf000080fb000000e9000c
:101ee800808f50000200320006d0bf0000f0b7001b
:101ef8004f0478000080fa00000006000600fa008f
:101f0800881f78007203070006040700bb03070058
:101f1800e5000700ef000700e601070084cea900ee
:101f280084aea800848ea800856ea800754ea9000e
:101f3800040ea800052ea80095eea800054ea800de
:101f4800746ea8000100370000000000ed030700d0
:101f5800e14f5000fcff3a00ee030700e5030700dd
:101f6800000f78001e80e800100078008000eb0069
:101f78003ffa0700323323003305240020fc070012
:101f880002002000035824003efb070010079800b9
:101f9800210798001e019000ae019000000020006b
:101fa8008120240037fb070002002000030a2400d8
:101fb80046fa0700a0818800b18188009e00780059
:101fc80064804000100078008000eb0028fa0700c9
:101fd800323323003305240009fc070002002000e7
:101fe8000358240027fb07001007980021079800d2
:101ff8001e019000ae019000000020008120240006
:1020080020fb070002002000030a24002ffa070023
:10201800c0818800d18188009e00780066804000d9
:10202800100078008000eb0011fa0700323323001b
:1020380033052400f2fb07000200200003582400a7
:1020480010fb070010079800210798001e01900058
:10205800ae019000000020008120240009fb070049
:1020680002002000030a240018fa0700e081880013
:10207800f18188009e007800688040001000780098
:102088008000eb00faf907003233230033052400ff
:10209800dbfb07000200200003582400f9fa0700c0
:1020a80010079800210798001e019000ae019000cb
:1020b8000000200081202400f2fa0700020020001e
:1020c800030a240001fa07000082880011828800b0
:1020d8001e007800100078008000eb00e4f907008b
:1020e8003233230033052400c5fb0700020020001b
:1020f80003582400e3fa0700100798002107980006
:102108001e019000ae0190000000200081202400f4
:10211800dcfa070002002000030a2400ebf907009c
:102128008081880091818800a0818000b181800031
:1021380018c0b30002002000c32024008cf9070057
:102148000000e000010035000044eb000804e00056
:102158000200320084aea8000100370084aea90056
:10216800c0818000d181800018c0b3000200200027
:10217800c32024007ef907000000e00001003500bc
:102188000044eb000804e00002003200848ea8003e
:1021980001003700848ea900e0818000f181800071
:1021a80018c0b30002002000c320240070f9070003
:1021b8000000e000010035000044eb000804e000e6
:1021c80002003200856ea80001003700856ea90064
:1021d800008280001182800018c0b3000200200035
:1021e800c320240062f907000000e0000100350068
:1021f8000044eb000804e00002003200754ea8001d
:1022080001003700754ea90080818000918180000f
:1022180018c0b30002002000c320240054f90700ae
:102228000000e000010035000044eb000804e00075
:102238000200320084cea80044ff370084cea900f3
:1022480042ff37000000fa0013e1a90011e1a900dc
:102258001061a8001021a90081088000f0fc2f005f
:1022680000806000800888000a21ef000621ef0046
:1022780000e0200060088800707220007008880064
:102288002142800080ff2f00008060000000a00035
:10229800204288000108a9002108a80011e1a8002f
:1022a8000080fa00000006000000fa0005e1a9001d
:1022b8000421a90000002000a14724001000070005
:1022c8000068a9002068a80005e1a8000080fa00bd
:1022d800000006000000fa001fe1a9001e21a90065
:1022e80000002000a1472400790007000368a90026
:1022f8002368a8001fe1a8000080fa00000006007b
:102308000400fa00881f7800008fbe0021088000b2
:10231800f0fc2f0000806000200888001e01780073
:102328009e019000001c2e0041c6240055fa0700ab
:1023380018c0b30002f02f00f37724000ef907004d
:102348000000e00001003c000044eb000804e0004d
:102358005400320021088000f0fc2f00008060004b
:102368000040a000200888001e0178009e0190000f
:10237800001c2e0041c6240042fa0700020020007b
:10238800031024003ffa070018c0b30002f02f0022
:10239800f3772400f8f807000000e00001003c0093
:1023a8000044eb000804e0003200320021088000fd
:1023b800f0fc2f00008060000050a000200888007a
:1023c8001e0178009e019000001c2e0041c62400ca
:1023d8002cfa0700020020000328240029fa07002d
:1023e80018c0b30002f02f00f3772400e2f80700ca
:1023f8000000e00001003c000044eb000804e0009d
:102408001000320021088000000320000100700045
:10241800200888001e0178009e019000001c2e00f4
:1024280041c6240017fa07000200200003382400e0
:1024380014fa0700d2f80700000078001008880096
:10244800200037001e0178009e019000001c2e001d
:1024580041c624000bfa07000200200003282400cc
:1024680008fa0700c6f8070000007800100888007e
:10247800140037001e0178009e019000001c2e00f9
:1024880041c62400fff907000200200003102400c1
:10249800fcf90700baf80700000078001008880067
:1024a800080037001e0178009e019000001c2e00d5
:1024b80041c62400f3f90700b1f8070000007800ce
:1024c800100888004f0478000080fa000000060019
:1024d8000400fa00881f7800008fbe00f108800011
:1024e800f0fc2f0000806000f00888001e017800d2
:1024f8009e019000001c2e0041c62400e1f907004f
:1025080018c0b30002f02f00f37724009af80700f0
:102518000000e00001003c000044eb000804e0007b
:1025280054003200f1088000f0fc2f0000806000a9
:102538000040a000f00888001e0178009e0190006d
:10254800001c2e0041c62400cef90700020020001e
:1025580003102400cbf9070018c0b30002f02f00c5
:10256800f377240084f807000000e00001003c0035
:102578000044eb000804e00032003200210880002b
:10258800f0fc2f00008060000050a00020088800a8
:102598001e0178009e019000001c2e0041c62400f8
:1025a800b8f907000200200003282400b5f9070045
:1025b80018c0b30002f02f00f37724006ef807006c
:1025c8000000e00001003c000044eb000804e000cb
:1025d80010003200f10880000003200001007000a4
:1025e800f00888001e0178009e019000001c2e0053
:1025f80041c62400a3f90700020020000338240084
:10260800a0f907005ef807000000780010088800ad
:10261800200037001e0178009e019000001c2e004b
:1026280041c6240097f9070002002000032824006f
:1026380094f9070052f80700000078001008880095
:10264800140037001e0178009e019000001c2e0027
:1026580041c624008bf90700020020000310240063
:1026680088f9070046f8070000007800100888007d
:10267800080037001e0178009e019000001c2e0003
:1026880041c624007ff907003df8070000007800e4
:10269800100888004f0478000080fa000000060047
:1026a8000000fa001030ef001230ef000080fa004e
:1026b800000006000000fa001160800080ff2f0073
:1026c800008060001060880000962000206088006c
:1026d8001161800000c020000100700010618800b6
:1026e80023cca80023eca80030002000206188003b
:1026f8001162800000c02000010070001062880094
:1027080043cca80043eca8003000200020628800d9
:1027180001eca8000080fa00000006000000fa00a2
:10272800889fbe00648180007581800040818000a0
:102738005181800018c0b3000001be000400be0033
:102748000bf807000000e000010035000044eb0032
:102758000804e0000d0032004881800059818000a3
:1027680064818000758180006080800071808000b5
:102778000001be000400be005df807000801be00ad
:10278800fa000700608188007181880064818000f8
:1027980075818000408180005181800018c0b3009d
:1027a8000001be000400be00f3f707000000e000cf
:1027b80001003c000044eb000804e0000d0032007a
:1027c8004881800059818000648180007581800083
:1027d80060808000718080000001be000400be009f
:1027e8003af807000801be00c800070060818800a9
:1027f80071818800608180007181800018c0b300f9
:102808006011b800dcf707000000e00001003d009f
:102818000044eb000804e0001400320060818000ee
:102828007181800002002000031c2400f4f90700d5
:102838000002be0040808000518080000001be0080
:102848000400be002af80700eef707000000780031
:10285800306288004080800051808000e9f70700de
:102868000000780070628800140037004080800003
:1028780051808000e3f7070000007800306288008c
:10288800608180007181800001f0a20002002000b8
:10289800031c2400daf907000002be004080800013
:1028a800518080000001be000400be0010f807003f
:1028b800d4f7070000007800706288002481800047
:1028c80035818000008180001181800018c0b3002c
:1028d8000001be000400be00a5f707000000e000ec
:1028e800010035000044eb000804e0000d00320050
:1028f8000881800019818000248180003581800052
:1029080060808000718080000001be000400be006d
:10291800f7f707000801be0094000700208188002f
:102928003181880024818000358180000081800009
:102938001181800018c0b3000001be000400be0071
:102948008df707000000e00001003c000044eb00a8
:102958000804e0000d003200088180001981800021
:102968002481800035818000608080007180800033
:102978000001be000400be00d4f707000801be0035
:102988006200070020818800318188002081800052
:102998003181800018c0b3006011b80076f70700d5
:1029a8000000e00001003c000044eb000804e000e7
:1029b8001400320020818000318180000200200054
:1029c800031c24008ef907000002be00408080002e
:1029d800518080000001be000400be00c4f707005b
:1029e80088f7070000007800306188004080800088
:1029f8005180800083f7070000007800706188002c
:102a08001400370040808000518080007df7070067
:102a180000007800306188002081800031818000ca
:102a280001f0a20002002000031c240074f9070032
:102a38000002be0040808000518080000001be007e
:102a48000400be00aaf707006ef707000000780030
:102a5800706188004f04be000080fa000000060084
:102a68000600fa00008fbe00424798004e409000d2
:102a7800e14f500005003a001e0178009e019000c9
:102a88000281880013818800080037004e409000ba
:102a98000004e00005003a001e0078009e00900047
:102aa80001f0a20040818800518188000080fa006e
:102ab800000006000400fa00881f7800008fbe009e
:102ac80018c0b3006011b8001e0078009e00900086
:102ad80029f707000000e00001003d000044eb007a
:102ae8000804e000030032001e0078009e009000f9
:102af800030037001e0078009e00900001f0a2003d
:102b08004f0478000080fa00000006000800fa0070
:102b1800881f7800008fbe002207980033079800ae
:102b280018c0b3002e019000be0190001e0078006e
:102b38009e00900010f707000000e00001003c0034
:102b48000044eb000804e000030032001e00780097
:102b58009e009000020037002e009000be009000fa
:102b68004f0478000080fa00000006000800fa0010
:102b7800881f7800008fbe0022079800330798004e
:102b880018c0b3002e019000be0190001e0078000e
:102b98009e009000f6f607000000e00001003500f6
:102ba8000044eb000804e000030032001e00780037
:102bb8009e009000020037002e009000be0090009a
:102bc8004f0478000080fa00000006000c00fa00ac
:102bd800881f7800008fbe002207980033079800ee
:102be800440798005507980018c0b3004e0190009c
:102bf800de0190001e0078009e009000def60700bf
:102c08000000e00001003c000044eb000804e00084
:102c1800040032004e019000de019000028fbe00d9
:102c28000e00370018c0b3002e019000be019000be
:102c38001e0078009e009000cdf607000000e0001e
:102c4800010035000044eb000804e00003003200f6
:102c58002e019000be019000028fbe001e00780079
:102c68009e0090004f0478000080fa0000000600e3
:102c78000400fa00008fbe00b2fd20009304240077
:102c88001e0078009e009000fef70700020020005a
:102c980043332400daf807000080fa000000060039
:102ca8000400fa00008fbe00b2fd20009304240047
:102cb8001e0078009e009000d1f807000200200056
:102cc80043332400eff707000080fa0000000600f5
:102cd8000000fa00413a800000fc2f0000806000ec
:102ce8007001b300403a8800313a800000e02f00bc
:102cf800808060008005200001007000303a880064
:102d0800213a8000f0f32f0000806000203a88000c
:102d1800213a800000fe2f00008060000000a00023
:102d2800203a88001200200080072000a109200016
:102d380033742000804978008149780082497800fe
:102d4800103a8000000178000200a0006004200012
:102d5800710520002374200080497800814978009b
:102d68008249780000000000113a80000000270026
:102d78008080600000002100808f5000faff3a0038
:102d88005927a800c13a800080ff2f00008060000a
:102d98000000a000c03a8800d03a80007000b3005c
:102da800d03a8800c13a8000f0f12f00808060009e
:102db800000c200001007000c03a880059a7a80044
:102dc80059e7a80000000000c13a80000000240074
:102dd800008060000000e000fbff320000000000ff
:102de800113a800000022000008060000000e0002e
:102df800fbff32000080fa00000006000000fa0025
:102e080021e3a9002143a80001198000f0cf2f0079
:102e180000806000001988002043a9000119800083
:102e2800000e2000010070000019880011198000b0
:102e3800f0ff210000806000101988002343a800db
:102e480011198000f0cf2f00008060001019880051
:102e58001119800030f82f00008060000040a000a9
:102e6800101988002203a9002223a90025e3a9003c
:102e7800f0c0b30024e3b70021198000f00f2e0042
:102e88008080600000f02000010070002019880098
:102e98003303a9001f0ea8001f2ea8001f4ea8006c
:102ea8003103a8003123a8003143a8001e0ea80052
:102eb8001f6ea8003003a8003163a80041198000e4
:102ec80000fe2f00008060004019880028e3a90058
:102ed80001a8a90021a8a80021e3a8000080fa0001
:102ee800000006000000fa002023a8000080fa0075
:102ef800000006000000fa00400421000080fa00eb
:102f0800000006000000fa001bd0bf000080fa0095
:102f1800000006000000fa001b70ef000080fa00b5
:102f2800000006000000fa000e2eef001e2eef0033
:102f38003e2eef002e2eef004e2eef006e2eef00ed
:102f480080cea90080aea900808ea900816ea9005c
:102f5800714ea90091eea900000ea900012ea9004a
:102f6800014ea900706ea9000c00070002000700be
:102f78000080fa00000006000000fa00217420001a
:102f88006204200073052000824878008348780096
:102f980042c7a8000080fa00000006000000fa00fe
:102fa8002174200062042000730520008248780004
:102fb8008348780042c7a9000080fa000000060094
:020000040000fa
:102fc800001000000800000080000000161000003b
:102fd8000400000082000000000020004200000001
:102fe8001010000006000000800000001e10000005
:102ff8002600000080000000081000000800000003
:10300800820000000000480042000000204100004b
:10301800441000000a000000800000001a100000a0
:1030280002000000800000001c10000002000000e8
:08303800800000000000000010
:020000040000fa
:0200000401f009
:04000800cfffff0027
:020000040000fa
:0200000401f009
:04000c00f9ffff00f9
:020000040000fa
:0200000401f009
:040010005bffff0093
:020000040000fa
:0200000401f009
:040014007fffff006b
:020000040000fa
:0200000401f009
:04001800cfffff0017
:020000040000fa
:0200000401f009
:04001c00deffff0004
:020000040000fa
:0200000401f009
:04002000cfffff000f
:00000001FF
